:020000040800F2
:10000000C808002075010008413A00084929000885
:1000100000000000000000000000000000000000E0
:10002000000000000000000000000000753C000817
:100030000000000000000000433A0008773C000880
:100040008701000800000000870100088701000800
:100050008701000887010008870100088701000860
:1000600000000000870100088701000887010008E0
:1000700087010008813C00088D3C0008000000005A
:100080009D3C0008000000000000000087010008FF
:100090000000000087010008870100084D290008C2
:1000A0008701000887010008870100088701000810
:1000B00087010008000000000000000000000000B0
:1000C00000F002F800F046F80CA030C808382418F8
:1000D0002D18671EA246AB4654465D46AC4201D180
:1000E00000F038F87E460F3EB6460FCC012633426C
:1000F00000D0FB1A3343A246AB4618475C480000C9
:100100007C480000103A02D378C878C1FAD8520768
:1001100001D330C830C101D504680C6070470000BD
:100120000023002400250026103A01D378C1FBD813
:10013000520700D330C100D50B60704710B5782945
:1001400002D100F07DF810BD002010BD1FB51FBD0D
:1001500010B510BD00F0A7FA1146FFF7F7FF04F045
:1001600037F800F0BFFA03B4FFF7F2FF03BC00F06A
:10017000C5FA00000748804707480047FEE7FEE74A
:10018000FEE7FEE7FEE7FEE704480549054A064BA1
:10019000704700007F3C0008C1000008C802002032
:1001A000C8080020C8040020C80400200FB41CB5F3
:1001B000074B06AA7B4469460090059800F05BFA5D
:1001C0000020694600F06AFA1CBC08BC04B018475D
:1001D000E5040000F8B50E460446002020622046E3
:1001E000E1688847002829D0252802D06268A168E4
:1001F00020E0E16820460027884705001ED02846F9
:100200004138192802D80127FF02203532462046FE
:1002100027602946FFF792FF002808D0012804D064
:10022000F61DF608F6000836D9E7361DD7E76268EE
:100230002846A1689047206A401CCFE7206AF8BD95
:1002400070B504460D4621461068C046C046218858
:10025000090502D50F4A7A4402E00E4A7A440E326A
:1002600023460021243305E006070009360F965D7A
:100270005E54491C0028F7D120780023000705D5DB
:10028000702D03D0002901D002231132204600F046
:1002900095F970BD5E4600007047704770470000DA
:1002A0000246C80FC00781434B0030B54B405B008E
:1002B0009B0D20D01923DB06C91801231B05994289
:1002C00020DB0324A40704251346AB400BD3002BEB
:1002D00004D1EB0613409B00E34204D401246407DD
:1002E000002312195941FF231B0599420BD2C90063
:1002F0000143500F09E0CB0204D501430803024338
:1003000005D0054830BDFF21C905084330BD08466A
:1003100007210905884330BD0000C07F1F22030C60
:1003200002D10F22000402D0030E03D004E000200B
:10033000014670470002083A030F01D10001121F65
:10034000830F01D18000921E002801DB4000521E65
:10035000120551184205C012411810467047C10FCE
:10036000C90700D04042012292071143D6E701217C
:100370008907D3E7F0B58B4C0F09254689B0BD43FB
:100380007BD01D092646AE43FAD00E465E4027407C
:10039000F60F3E43254071D024012142FBD0FF24BB
:1003A000AD19A4042D1B039501252D05DB02DB0AE5
:1003B000C9022B43C90A29431E010901040F130F67
:1003C000050121431701880B820391432D098C46B7
:1003D000A90B1E438A039543B30B9A0396433F0927
:1003E000BA0B9403A74302962E467E430497B64663
:1003F0004E19D7190C460196544305977E43371B77
:100400007646BF1B3601B646BE0B361900967646B9
:10041000BC043719009C01D3641C00946400002FB5
:1004200001D001263443029E049F754366467E43F5
:100430000496760034196E0034190094029C019ED3
:100440001C196643751BAE46069465464519059C06
:1004500005956C43594375460891691A0191049EAC
:1004600001465143A41B0491611A009C0791E106C7
:1004700005D061090122114302E072E06EE06109DA
:10048000089D00272C0A2D066918049D7C412A0A24
:100490002D066918019D6241AC0DAD026D185441E5
:1004A000079A910D920255196141029A6446584388
:1004B0005443069B059A5A43121A131B9A0E9B012A
:1004C0005B187A41010B0005C3185141220A20062E
:1004D00044195A419A4200D2491C012040028142EB
:1004E00003D315230226F64302E014230326F64322
:1004F0002020C51AA9401746AF40DA400A432046DB
:100500000399D8400914731819055118039A3843F0
:10051000D2075140AC4009D00122944006D30022BA
:10052000401C5141002C01D1400840001E4A93421A
:1005300012D3012203989206904207DB0520400760
:1005400009181A480143C012414004E00320400743
:100550000818C10FC907002009B0F0BD0020F1073D
:10056000FAE705180C464C4111486D42A04115D3DD
:1005700094181A465A410E48644290410ED3012005
:100580004A004005824209D35A00824206D35940AC
:10059000C90F084AC90700201143DDE700200649BA
:1005A000DAE700000000FF07FE070000FFFFFF7F03
:1005B0000000E0FF0000F07F0000F87FFFB5044678
:1005C0000D4681B0243000902168880604D51022A1
:1005D000E0699143216000E00120A84201DD471B52
:1005E00000E000270498A1697A191018081AA06180
:1005F0002078C00602D42046C046C046002608E047
:1006000003986268A168805D9047206A401C761C50
:10061000206204988642F3DB2078C0060AD5204683
:10062000C046C04606E06268A16830209047206A54
:10063000401C206238467F1E0028F4DC07E000984A
:100640006268A168405D9047206A401C206228468D
:100650006D1E0028F3DC2046C046C0462078000608
:1006600002D5022005B0F0BD0120FBE701694A1C5C
:1006700002610878704700B58FB0029100210591A2
:100680000549019379440391114604906846FFF7A8
:10069000A1FD0FB000BD0000E5FFFFFF0A6810706C
:1006A000521C0A607047754600F024F8AE460500FB
:1006B00069465346C008C000854618B020B5FFF70C
:1006C00063FD60BCB64600260027C0C5C0C5C0C5D6
:1006D000C0C5C0C5C0C5C0C5C0C5403D490849006A
:1006E0008D46704710B50446C046C0462046FFF709
:1006F0003AFD10BD0048704748000020014918200D
:10070000ABBEFEE7260002007047EFF3108072B622
:10071000FEE7000070B5014624314A78022A2BD149
:1007200003681A680E24A2431A601C6801229443CD
:100730001C60446C2568124B1D402560046C1C2510
:1007400025401446AC400F4D2E6826432E60846C25
:10075000C56C6560046D002C05D025681D402560C2
:10076000436D846D5C6000240C704A70816B0029BD
:1007700000D08847204670BD0421C163012070BDB0
:10078000FFFEFFFF040002402521405C704700008F
:10079000B0B5044600F0E8F80546601C02D00448F5
:1007A0000078041900F0E0F8401BA042FAD3B0BD75
:1007B00038000020F0B58AB00A68002A00D1BEE0F7
:1007C0000E466049884201D0052100E003210091D6
:1007D0000027089709973C46029601900FE01A43BC
:1007E0002A60641C32681146E140BF1C089B1B1D37
:1007F0000893099B08330993002900D19FE0012544
:100800000495A5402A400792EBD003231846B84030
:10081000C043394677683A461A40561E012E06975D
:10082000059112D806460390019883683340029ED2
:10083000F6688E401E438660FB06DB0FA3404668C9
:10084000AE431E434660039908E0032A014601981F
:1008500004D11A46029E069D059F1DE0C3680B4009
:10086000029EB568059FBD401D43C560022A069DD6
:1008700012D103911C21089A11400F228A40E308EB
:100880009B00C3181D6A954332698A4003992A4325
:100890001A62756803222A40BA4003680B4013436A
:1008A0000360A903890F9CD01821099A11400F23D6
:1008B0008B40032225469543234A5219156E9D43CA
:1008C000603205231B0798420AD0214B984205D07D
:1008D000204B9842009B04D1022302E0049B00E0DD
:1008E00000238B402B431360174D2A687168CB029D
:1008F00008D5079B1A432A606A688B0208D4079BB5
:100900009A4307E0079B9A432A606A688B02F6D5F0
:10091000079B1A436A600D4D6A688B0306D5079BD7
:100920001A436A602A68C90307D558E7079B9A43A8
:100930006A602A68C90300D551E79A4350E70AB0B4
:10094000F0BDC046000C0050001802408018024064
:100950000004005000080050002A02D018228150E4
:100960007047282281507047014800687047C04690
:10097000C4020020B0B50246034640335C78022032
:10098000202C17D11C78012C14D02420587010680A
:1009900002680124A24302602203056895430560B2
:1009A00002680A4302600168214301600020187058
:1009B00020215970B0BDB0B50246034640335C7883
:1009C0000220202C17D11C78012C14D02420587020
:1009D000106802680124A24302600F221202056817
:1009E0009543090229430160016821430160002009
:1009F000187020215970B0BD70477047F0B581B0B4
:100A00000122150201688B691C462C406642664132
:100A10000F6880243C4067426741374304D1466CED
:100A2000012737434764CD61654265415E0516463F
:100A300000D52E46002E05D19502466C0827374377
:100A40004764CD61654265419B05134609D4002B7F
:100A50000AD0416C0B22114201D001F0FDFF01B020
:100A6000F0BD2B46002BF4D15202436C02241C43F0
:100A70004464CA61416C0B221142EED1EFE780B5AC
:100A800002689169436B1268002B00D0984780BDC3
:100A900070474121405C7047F0B581B0002822D0FA
:100AA0000446054640356878002804D100202870A7
:100AB000204600F0BBFC24206870206802680121F9
:100AC0008A4302600F2212066368934303618368BE
:100AD000194A13408360A368E668012E06D1CE034D
:100AE000334383600AE0012001B0F0BD2127BF023B
:100AF0003B438360022E01D1CB02436043680F4E1B
:100B00001E434660C3681340C36022696369134390
:100B1000A26912021A43C260E269236A13430360A6
:100B200002680A430260002060642021697020632B
:100B3000A87001B0F0BDC046FF7FFFFF008000023B
:100B4000F0B58BB01E4600250A95074640377B78E6
:100B50000224202B00D0D6E0089203689A69120480
:100B600000D5D0E03A78012A00D1CCE024227A7076
:100B700001243C704564854A11400991634A01464D
:100B80000695099885180522D202801802900597CB
:100B9000049403950791C968012900D0029D5D6006
:100BA000FFF7E2FE0746079D2B689969202209920C
:100BB00011409A69102404E02B689969099A114040
:100BC0009A692240891809D1711CF6D0FFF7CCFE32
:100BD000002E64D0C01BB042EED960E09969C9060E
:100BE00066D59969890619D4711C0BD0002E73D073
:100BF000FFF7BAFEC01BB04270D82B68996989060E
:100C0000F6D50BE09969890608D49969890605D457
:100C10009969890602D499698906F3D5DC61099935
:100C2000D9610A99089A914226D10124A1035A68F0
:100C30000A435A609969890619D4711C0BD0002E99
:100C400056D0FFF791FEC01BB04253D82B6899696C
:100C50008906F6D50BE09969890608D49969890651
:100C600005D49969890602D499698906F3D5099949
:100C7000D9610698089A00E006980A99491C0A91D9
:100C80000A999142059F049C039D079983D3099A71
:100C90007A700346486C10434864184632E0059F5A
:100CA00009997970686C084368640698049C29E087
:100CB000009720270024284639462246334602F072
:100CC000D7FC002801D001241DE02868C7610598E1
:100CD00047700746069815E0FFF746FE686C0999CD
:100CE00008436864059F79700698B870049C09E011
:100CF000FFF73AFE686C099908436864059F7970AC
:100D00000698B870387020460BB0F0BD0020000285
:100D10007047704770470000F0B5044605464035FF
:100D20006E780220202E2FD12668B7693F042BD47D
:100D30002F78012F28D0222068701020A870002062
:100D400060646385AC4BE3626262AC4A6263012219
:100D5000638DFF2B02D91206FF2301E05206638D3B
:100D600023857468A64F2740A64C2140DBB21B04A4
:100D7000591811433943092292020A4372602870BC
:100D80003168F4220A433260F0BDC046FF03000020
:100D9000F0B585B005460446403466780220202E22
:100DA00000D0E4E02678012E00D1E0E00193039228
:100DB0000491012002902070FFF7D6FD06462868B6
:100DC000816909040BD50298C703FFF7CDFD801B8D
:100DD000192800D9B9E0286881693942F5D1212163
:100DE00061701021A17000216964019A6A85039ADB
:100DF0006A6200916963698D090A824F80490AD04D
:100E0000049A3A400B4641681940031D0193FF23A1
:100E10000393594B0BE06B8D42680A4004993940AB
:100E20000393DBB21B045918031D0193514B0A9F16
:100E30000A431A4301990A6003992985698D00299B
:100E400058D00498F44908400490039412E0698D46
:100E500029854268F44B1A40C9B2090411430122A2
:100E60005306021D049C214319431160039C698DA4
:100E700000293FD028463946324602F081FC00283E
:100E800055D12868696A0A7882626A8D521E6A851D
:100E9000491C6962298D491E29856A8D002AE6D080
:100EA0000904E4D18169090619D4791C0BD0002FFB
:100EB00052D0FFF759FD801BB8424FD8286881698E
:100EC0000906F6D50BE08169090608D4816909068F
:100ED00005D48169090602D481690906F3D5698DB3
:100EE000090AB4D0FF2129854168CF4A1140021D6B
:100EF000CE4BB7E7002F10D028688169890619D436
:100F000028463946324602F037F800280FD1FFF75D
:100F10002BFD801BB842EFD917E08169890609D4FF
:100F200000212846324602F027F800280BD0012085
:100F300005B0F0BD2021C1614268BD4B1340436044
:100F40006170009810E0FFF70FFD686C20210843E6
:100F500068646170029807E0FFF706FD686C202165
:100F6000084368646170012000212170A17005B000
:100F7000F0BDC046002000020020FF01F0B581B0A6
:100F80000446054640356E780220202E31D1266871
:100F9000B7693F042DD42F78012F2AD02120687003
:100FA0001020A870002060646385134BE3626262C6
:100FB000124A62630122638DFF2B02D91306FF27B9
:100FC00001E05306678D2785746800921A46934B9B
:100FD0002340914C2140FCB2240461181143194371
:100FE000009A52030A43726028703168F2220A4361
:100FF000326001B0F0BDC0460000FFFFD9300008EC
:10100000009800FCFF03000070477047F0B589B0FE
:1010100005460446403466780220202E09D10E9EF3
:10102000002E08D00F9F002F05D007972778012F9B
:1010300006D109B0F0BD01204102696409B0F0BDDC
:10104000039204930591012006902070FFF78CFC19
:10105000014628688069000408910CD50698C703EA
:10106000FFF782FC0899401A192800D9C8E02868BF
:1010700080693842F4D1109A222060704020A0701C
:1010800000276F646E626F6307986885079200920D
:1010900001912846059E3146039A049B02F0DAF836
:1010A000002803D02770069809B0F0BD0497688D1A
:1010B000000A0CD0DB48064028684168574A0A40BD
:1010C00037469119574A89184160FF200EE0D548EC
:1010D0000640688D29684A68504B1340C2B212041A
:1010E000D218374692194E4BD2184A60079B288572
:1010F000CB4E0FE0698D298542683240C9B20904A0
:10110000114301225206001D394311430160688DCD
:1011100000285AD02868816949071BD4591C0DD072
:10112000002B68D0FFF720FC079B0899401A9842D3
:1011300066D8286881694907F4D50BE081694907B9
:1011400008D48169490705D48169490702D48169B6
:101150004907F3D5696A406A0870688D401E688542
:10116000686A401C6862288D401E2885698D0029A8
:10117000CDD00004CBD12868816909061BD4591C45
:101180000DD0002B3AD0FFF7EFFB079B0899401AD0
:10119000984235D8286881690906F4D50BE0816941
:1011A000090608D48169090605D48169090602D4B3
:1011B00081690906F3D5698D090A9BD0FF2129852C
:1011C00041683140001D954A9EE728461946089A15
:1011D00002F0A2FA0028069800D02AE72868202109
:1011E000C1614268904B1340436061700498207065
:1011F000A07009B0F0BDFFF7B7FB01E0FFF7B4FB4B
:10120000686C202108436864617000202070A07021
:10121000069809B0F0BDC046FF030000009800FC2E
:10122000002400020024FF01009C00FC0000FF01DC
:1012300000E800FEF0B589B0054604464034667803
:101240000220202E09D10E9E002E08D00F9F002FC5
:1012500005D007972778012F06D109B0F0BD0120EE
:101260004102696409B0F0BD039204930691012024
:1012700005902070FFF778FB0890286880690004CB
:101280000CD50598C703FFF76FFB0899401A19287A
:1012900000D9B8E0286880693842F4D1109921203B
:1012A00060704020A070002068646E62064668632B
:1012B0000798688507910091089F0197284606992D
:1012C000039A049B02F02AF8002803D026700598A0
:1012D00009B0F0BD01214A06688D000A4F4B504805
:1012E0000591029604920CD006464E48069A02409A
:1012F0002868416831400692114319434160FF203C
:1013000010E003464748069F0740688D2968164647
:101310004A681A40C3B21B04134306973B43089F15
:1013200033434B60079B288510E0698D298542680F
:101330003B4E3240C9B209041143001D049A069E77
:10134000314311430160688D002844D02846194676
:101350003A4602F015FA00283AD12868696A0A78F4
:1013600082626A8D521E6A85491C6962298D491EF6
:1013700029856A8D002A079BE5D00904E3D181699C
:1013800009061AD4591C0CD0002B3AD0FFF7ECFAFE
:10139000079BC01B984236D8286881690906F5D595
:1013A0000BE08169090608D48169090605D48169C1
:1013B000090602D481690906F3D5698D090AB4D0FA
:1013C000FF2129854168164A1140001D134AB6E7DE
:1013D000059809B0F0BD284619463A4602F09CF936
:1013E0000028059800D038E728682021C1614268AC
:1013F0000D4B13404360617002982070A07009B0DB
:10140000F0BDFFF7B1FA686C202108436864617091
:1014100000202070A070059809B0F0BD0000FF0109
:10142000009C00FCFF03000000E800FE70B58CB0DB
:1014300000240694059404940394029400681C49C3
:10144000884201D00CB070BD2020019001A800F0AE
:10145000F5F8002801D0FFF758F9164D2868012645
:101460003043286028683040009006200B900A9492
:10147000099412200890032040020790009805204C
:10148000000707A9FFF796F97005A9680143A9604D
:10149000A968014000910098172528462146224658
:1014A00000F070F8284600F061F80CB070BDC0463E
:1014B0000054004034100240704770471F480078C5
:1014C00002490A68101808607047C046C40200202C
:1014D00010B50124200208490A6802430A6003206B
:1014E00000F00CF8002801D0204610BD00F028F8CC
:1014F0000024204610BDC0460020024070B50F4EAB
:1015000031780124002916D005467D20C00003F063
:1015100029F801464748006803F024F800F06EFE01
:10152000032D08D8002806D10024E043294622468E
:1015300000F028F87560204670BDC04638000020D5
:1015400082B009484168012211434160416811405D
:1015500001910199110702680A430260006808407E
:101560000090009802B070473C100240002805D45B
:101570001F21084001218140014801607047C04699
:1015800000E100E0002805D40322034693430A4A01
:101590009A1803E00C220240064BD2188007C00EB6
:1015A0008901C9B28140FF238340106898430843F2
:1015B0001060704714ED00E000E400E0F0B581B089
:1015C000032569021A4E3246143A13688B430343CB
:1015D0001360012461020022884226D1F348016889
:1015E0003068400521D50092A702062048431249E1
:1015F00002F0B8FF201A022816D0316839420FD005
:10160000012811D0316839420AD000280CD0316845
:10161000394205D0001D032806D031683942EAD18D
:10162000009A104601B0F0BD2A46104601B0F0BD48
:10163000147000404400002040420F00F0B587B015
:1016400081788907584F01D4002650E00590012386
:1016500019073A46203A10680840049006D11068ED
:1016600008431060106808400690069802920391A3
:1016700001931E024D4C206830432060FFF774F93F
:101680000546206830420AD1FFF76EF9401B022858
:10169000F7D9032605980499002923D027E00320D1
:1016A000054601023868084011D005994969884209
:1016B0000BD03868019909043A680A433A603A68DD
:1016C0008A433A603A4908403860C0075AD13A68BC
:1016D0003748024005984169114339600026049952
:1016E000002904D1029B1968039A91431960056887
:1016F000E90705D1A9060DD401216A0416D42BE00F
:10170000394608390A6803239A43436813430B6038
:10171000A906F1D5032109033A46083A13688B4319
:1017200081681943116001216A0415D53A46083AC7
:101730001368204C23400C4631460669334313603E
:101740001C4A521C96420E46214605D10A043B46CD
:10175000503B1C6814431C602A0510D58D030322DE
:1017600092033B46083B1C689443C26814431C60C8
:10177000AA4204D10804503F396801433960304619
:1017800007B0F0BDFFF7F0F80646864C38688007D2
:101790009DD4FFF7E9F8801BA042F7D905982E46A3
:1017A000049900299ED0A2E75C100240007000401E
:1017B000FFFCFFFFFFFFFF3FF0B583B00D460121A7
:1017C00000281BD001910290754800680724204032
:1017D000A84216D272490868A04328430860714E97
:1017E000FFF7C2F807466E4800682040A84208D0BC
:1017F000FFF7BAF8C01BB042F5D90321084603B081
:10180000F0BD029E30688107924B0CD5410703D58D
:1018100021031A680A431A600F2109021A688A43D1
:10182000B16811431960C0071BD15D4800682040B2
:10183000A8422CD95A490868A04328430860594F48
:10184000FFF792F80646564800682040A8421ED08E
:10185000FFF78AF8801BB842F5D90321084603B088
:10186000F0BD0298406803285DD8810001A251585C
:101870008F46C046851800082B1900083519000846
:101880003F190008194608390968490559E0029AC4
:10189000107840076F4B05D5200319688143D06845
:1018A0000843186018688006400F22D01A68382153
:1018B0000A406948082A23D01A680A40102A5ED1D3
:1018C000596803220A40032A00D06448596849062F
:1018D000490F491C02F046FE5E4949684904490E19
:1018E00048435C494968490F491C02F03BFE594B8B
:1018F00006E01846083800688004410F5748C84081
:10190000196889093C220A40274989581F220A4040
:10191000D0402F49086026480068FFF7EFFD0146D8
:10192000084603B0F0BD596D0AE019460839096848
:10193000890306E0194608390968890101E0996DB3
:101940008907019900D459E71968A1430143196037
:10195000144FFFF709F806463E4800683821014059
:1019600002984068C000814200D15EE7FEF7FCFFAC
:10197000801BB842F0D90321084603B0F0BD1868B7
:101980000840202802D10120C003B9E718680840A8
:10199000182801D00020B3E77D200002B0E7C04640
:1019A0000020024088130000E048000844000020A6
:1019B0003C0000200648006826490968890A1C2264
:1019C0000A40044989581F220A40D0407047C04647
:1019D000440000202049000810B51E4C20688006F5
:1019E000400F06D0226838210A401B48082A07D138
:1019F00010BD083C20688004410F1848C84010BD45
:101A000022680A40102A15D1616803220A40032A7D
:101A100000D0124861684906490F491C02F0A2FD36
:101A200061684904490E48436168490F491C02F046
:101A300099FD10BD20680840202802D10120C00374
:101A400010BD20680840182801D0002010BD7D205E
:101A5000000210BD0810024000127A000024F400B9
:101A6000F0B587B00125002800D1ECE10495059080
:101A70000078C007F94F2AD0B868F96803252A46CC
:101A80008A4338210140102048408218504250417A
:101A9000082914D0002812D10598426801200104B9
:101AA0008A4208D005231B049A4200D0DAE082045F
:101AB0003B6813433B603A680A433A60DBE03868AE
:101AC000800304D505984068002800D173E105988B
:101AD0000078800723D40598007800070CD5B868F3
:101AE00038210140182971D1386E800704D5059836
:101AF0008069002800D15EE1059A1078400700D483
:101B00002EE1B86838210140202974D1F86D800792
:101B100000D425E19068002800D021E14BE1B968AC
:101B20003820084010214140FA6803252A4002234A
:101B30005340CA1851425141002820D000291ED1DB
:101B40003868059AD168002900D1A2E00721C902AE
:101B50008843116901433960012001023A680A4350
:101B60003A608402FEF700FF06463868204200D043
:101B7000A1E0FEF7F9FE801B0228F6D963E139687F
:101B80004905059B03D5D968002900D113E17F21C0
:101B900009027A688A435969090211437960002869
:101BA0000DD10720C00239688143186908433860A5
:101BB00038688004400FAA49C140AA480160AA4879
:101BC0000068FFF79BFC002885D0F4E0386E05998B
:101BD0008969002979D0012108433866FEF7C4FEDF
:101BE0000646386E800787D4FEF7BEFE801B0325AD
:101BF0000228F6D927E1012003900107F86B08407D
:101C0000029006D1F86B0843F863F86B0840069021
:101C10000698019195480068C00513D40398040202
:101C20009249086820430860FEF79EFE06468F48EA
:101C30000068204206D1FEF797FE801B032502288C
:101C4000F5D900E105988068894C012805D0052860
:101C50005AD1F86D04210143F965F86D03990843E1
:101C6000F8655BE03B688B433B6081043B688B43DA
:101C70003B60002A3AD04404FEF776FE06463868F8
:101C8000204200D023E7FEF76FFE801B6428F6D9C0
:101C9000D9E001210A02904338608C02FEF764FE0D
:101CA00006463868204200D115E7FEF75DFE801B2E
:101CB0000228F6D9C7E07F200002796881430598A1
:101CC000406900020843786005E7012188433866CF
:101CD000FEF74AFE0646386E800700D40CE7FEF792
:101CE00043FE801B03250228F5D9ACE04404FEF72F
:101CF0003BFE06463868204200D1E8E6FEF734FE97
:101D0000801B6428F6D99EE0F96D039A9143F9652A
:101D1000F96D04229143F96500280CD0FEF724FEEA
:101D20000646F86D800713D4FEF71EFE801B0325C0
:101D3000A042F6D987E0FEF717FE0646F86D800749
:101D400006D5FEF711FE801B0325A042F6D97AE0E6
:101D500002980028059A03D1F86B01998843F8632B
:101D6000D469002C76D0B86838210140102926D1DA
:101D7000012C20D0F86803210140059B1A6A91428A
:101D800019D1702101405A6A914214D17F21090270
:101D900001409A6A120291420DD11F21490401406B
:101DA000DA6A9142049D4ED1072149070840196B18
:101DB000884248D14EE0049D284607B0F0BD012579
:101DC00029063868049188433860FEF7CDFD064641
:101DD000022C0BD103956C063868204211D0FEF717
:101DE000C3FD801B03250228F6D92CE06C06386859
:101DF00020422BD0FEF7B8FD801B03250228F6D920
:101E000021E0F8681C490140059E20366DCE08434C
:101E100010431902014329433143F960386804999A
:101E20000843386003980007F9680143F960FEF73A
:101E30009BFD0646386820420CD1FEF795FD801BBD
:101E400003250228F6D9284607B0F0BDF8680949ED
:101E50000140F9600025284607B0F0BD001002409F
:101E60000024F400440000203C00002000700040EA
:101E700088130000FCFFFEEF8C80C11FF0B585B019
:101E800000280CD0044605465C3541208600606A77
:101E9000002807D0002020612046143007E00120F0
:101EA00005B0F0BD6068B04203D020461C30002170
:101EB00001600027A7626878002804D100202870FC
:101EC000204600F057F802200495019068702068C1
:101ED00001684022914303900160E168C64A0125F0
:101EE00091422A4600D33A461203ED020D430F27D2
:101EF00038020290854201D00025A5626568A76876
:101F0000354021239B023B405B1925690198054020
:101F10001D436069012318402843FC36A7693E40F1
:101F20000643E069382505403543206A802606408F
:101F30002E435803A56A05403543039E3560380C8F
:101F400004250540029801400A432A43606A102193
:101F500001401143606B082202400A437260D802BC
:101F6000F1698143F1610020206604994B7005B04E
:101F7000F0BDC04670B586B000681B49884201D0EC
:101F800006B070BD01210A031848C3681343C3603B
:101F9000C36813400193019A02680A430260026811
:101FA0000A400192019901680225294301600068F5
:101FB0002840019001980026059604960396029504
:101FC000802001900520000701AC2146FEF7F2FBBE
:101FD0000596049603960295082001900448214630
:101FE000FEF7E8FB06B070BD00300140341002403F
:101FF00000040050F0B587B0044606464436307EF3
:10200000012802D1022007B0F0BD154604910593C6
:1020100001273776FEF7A8FC0390707E01285FD178
:10202000049A002A384600D1E1E0002D384600D15C
:10203000DDE002970327777600202066E587A587F5
:10204000A26320643080E064206501907080206885
:102050000121CA03A368934207D1026840239A432F
:102060000260890302680A4302600168490603D4DA
:10207000016840220A43026061684A424A416B1E7D
:10208000594259411143E2685B4B3D469A423ED367
:10209000002907D0049A1188C160901CA063E08FCA
:1020A000401EE087E08F0028039F71D00598401CF8
:1020B0000BD11CE0A16B0A88C260881CA063E08F72
:1020C000401EE087E08F002862D020688168890781
:1020D000F0D4FEF749FCC01B05998842F2D33FE0DB
:1020E000022084E0FEF740FCE08F002850D02068FA
:1020F00081688907F6D5A16B0A88C260881CA06335
:10210000E08F401EE087E08F0028F0D140E00029FA
:1021100008D0049909780173A06B401CA063E08F7C
:10212000401EE087E08F0028039F31D00598401CB7
:102130000CD11DE0A16B09780173A06B401CA0635A
:10214000E08F401EE087E08F002821D02068816862
:102150008907EFD4FEF708FCC01B05998842F2D32B
:10216000029F284643E0FEF7FFFBE08F00280FD0D8
:10217000206881688907F6D5A16B09780173A06B87
:10218000401CA063E08F401EE087E08F0028EFD165
:1021900003200490C1022046059D2A463B4601F0DB
:1021A00051FC00280FD1204629463A4601F0FAFC9E
:1021B000002808D10498410220462A463B4601F0F7
:1021C00041FC002804D0206E2021084320662166AF
:1021D000A068002807D1019806902068C168069180
:1021E000806806900698206E411E8841029F00225A
:1021F0003276777607B0F0BD01070000401E010E71
:1022000001D0012070470749074A5060074803681A
:102210000B400321890759180160002090600721B5
:1022200011607047FFFFFF0010E000E020ED00E0CC
:10223000704770477047000070B53C22825C012AED
:1022400001D1022070BD02463C3202235370006867
:1022500045688368724CA04201D02E4604E00F26E8
:102260003605B5434E682E437025AE430D683543A1
:102270004560A04202D06B4CA04204D18024A3430D
:10228000896819438160002010700121517070BD70
:10229000F0B581B0002824D0044605463C35687866
:1022A000002804D100202870204600F05FF80220AA
:1022B0006870206803685A49884202D0594A90429F
:1022C00012D170229343A2681A43244B98420FDD27
:1022D000884213D0224B984210D0224B98420DD006
:1022E00039E0012001B0F0BD1A461C4B9842EFDCEA
:1022F0004C4B984202D01C4B98422CD103231B021A
:102300009A432669164323463E33224644328027A9
:10231000BE43A76937430760E668C662666886629F
:10232000884205D00E49884202D00E49884201D128
:1023300061690163012141611171197059709970CE
:10234000D97019715971117051709170D170697093
:10235000002001B0F0BD1646D5E7C046FF2B014076
:1023600000480140004401400020004010B582B008
:102370000068E849884217D0E749884226D1012001
:10238000C00213494A6802434A604968014001910A
:1023900001980D24002120460A46FFF7F3F8204655
:1023A000FFF7E4F80E2409E009480168022211430E
:1023B0000160006810400090009810240021204621
:1023C0000A46FFF7DFF82046FFF7D0F802B010BD4D
:1023D0003C10024010B53D21415C012918D1014655
:1023E0003D3102220A700168C86801221043C860AA
:1023F000C948814202D0C74881420BD188680A4B44
:1024000003400020062B02D01404A34202D110BDC9
:10241000012010BD086810430860002010BDC046B0
:10242000002C01400004004007000100F0B53C22F0
:10243000825C012A01D10220F0BD02463C32022317
:1024400053700468A0684E4B0340A3600D680023DE
:102450004F2D1EDC1F2D37DD202D39D0302D37D0EC
:10246000402D00D087E0206A256A0126B543256209
:10247000A569F026B543CE6836012E43A6610A252C
:10248000A843496801432162A0683E4901404731A1
:102490006BE06F2D28DD01204603B54240D00003DC
:1024A000854218461CD0702D65D1FF200002A5681A
:1024B000854348688E68C96806430802304328434C
:1024C000A060A068772139E0002D01D0102D52D1F5
:1024D000A0682C4901400D4307202843A0601846FE
:1024E000137001215170F0BD502D29D0602D42D1C3
:1024F000206A1025A84320620F200003A5698543A8
:10250000C86800032843256AA061A0208543486865
:10251000000128432062A0681A490140673124E085
:10252000FF252D02A668AE434D688F68C9682F430A
:10253000090239433143A1608003A168014314E0DB
:10254000206A256A0126B5432562A569F026B543B0
:10255000CE6836012E43A6610A25A8434968014387
:102560002162A068074901405731A16018461370E5
:1025700001215170F0BD0120137001215170F0BD97
:102580008800CEFF88FFCFFF70470000B0B504463B
:10259000006801698907554D17D5C168890714D5A9
:1025A0002946FE310161012121778069800703D02E
:1025B0002046FFF7E9FF05E0204600F099F82046A5
:1025C00000F097F80020207720680169490718D5A6
:1025D000C168490715D52946FC31016102212177DF
:1025E00080698005800F03D02046FFF7CDFF05E00E
:1025F000204600F07DF8204600F07BF80020207790
:1026000020680169090717D5C168090714D529464B
:10261000F831016104212177C069800703D0204689
:10262000FFF7B2FF05E0204600F062F8204600F018
:1026300060F80020207720680169C90618D5C168B4
:10264000C90615D52946F031016108212177C069F5
:102650008005800F03D02046FFF796FF05E0204657
:1026600000F046F8204600F044F80020207720686B
:102670000169C90709D0C168C90706D02946FF31D9
:102680000161204600F036F820680169090609D585
:10269000C168090606D52946803101612046FFF749
:1026A000C8FD20680169C90507D5C168090604D5B8
:1026B00005612046FFF7BCFD20680169490609D580
:1026C000C168490606D52946C0310161204600F09F
:1026D00029F820680169890607D5C168890604D5EB
:1026E000E03505612046FFF7A5FDB0BDFFFEFFFF09
:1026F0007047704700680749884207D006498842FA
:1027000007D107480188491C01807047034801210F
:102710000180704700040040002C0140E2000020CE
:10272000E000002070470000F0B583B0002841D0E1
:102730000446074680377868002804D100203870A6
:10274000204600F057F824207860206801680125B1
:10275000A9430160204601F013FB012827D0A06A9D
:10276000002802D0204601F0A1FA0920C002216809
:102770004A6882434A6088682A22904388600868D1
:102780000126304308600025FD60FEF7EDF80346A2
:1027900020680168090713D51548009071050022CB
:1027A0002046029301F0A2FB002807D0032528460B
:1027B00003B0F0BD0125284603B0F0BD2068029BA0
:1027C000006840070CD50A480090B1050022204659
:1027D00001F08CFB002803D00325284603B0F0BD90
:1027E00020207860B8603D70E566284603B0F0BDF3
:1027F000FFFFFF0180B586B000681249884201D012
:1028000006B080BD10488268012105914B041A432F
:10281000826082681A400092009A02680A4302604D
:10282000006808400090002004900390022002906D
:102830000C20019005200007009901A9FDF7BAFFBF
:1028400006B080BD0044004034100240F0B587B0AF
:102850000646803675680224202D13D101250029F3
:1028600018D006910392002A14D001210F03826828
:10287000BA420BD1069AD20708D00269002A05D1C4
:102880000D4607E02546284607B0F0BD3278012AFC
:10289000254602D1284607B0F0BD059302460446FE
:1028A00054340025F5603170212002967060164680
:1028B000FEF75AF80490039860802080B068B84210
:1028C00002D13069002802D0069F069500E000275B
:1028D000029805700BE0069A10881A490840316882
:1028E0008862921C06922F466088401E6080608835
:1028F000002811D0059800908021002530462A46F6
:10290000049B01F0F3FA002811D1002FE3D03878AE
:10291000316888627F1CE7E7059800904021002518
:1029200030462A46049B01F0E1FA002803D0032533
:10293000284607B0F0BD202002994860284607B01D
:10294000F0BDC046FF010000FEE7000080B507486B
:10295000006880694005400F03D00448FEF74EF838
:1029600080BD0248FEF78BF880BDC046E80000201D
:1029700080B5806A816B002901D000228A630146FC
:102980004031C26B002A01D0002393634A78602A49
:1029900007D120224A7000220A700263FEF72CF849
:1029A00080BD00220A700263FEF772F880BD00004D
:1029B000F0B583B006464036717828220A40056893
:1029C000282A21D1A969AC69AA680292EB68FE2283
:1029D000240CC903C90FC768022F1BD101911946E6
:1029E000029BDF0967407C07A40F1FD00B461340F2
:1029F000002232702A68B824A2432A6001991A463C
:102A0000FDF7FBFF03B0F0BD002030700820E86147
:102A100003B0F0BD002333702B68B826B3432B609E
:102A200014402246FDF7E9FF03B0F0BD826C521C52
:102A30008264826C022AEBD1064C1A4622400023A3
:102A4000836433700823EB610199FDF7D6FF03B06F
:102A5000F0BDC046FF030000B0B504460546403552
:102A60006A780020A8708A4BE3626085636C0B4330
:102A700063646978283A022A0AD828221140282952
:102A800011D0F22069781140282911D1042310E0D7
:102A9000697821680A68FE239A430A606A78602A86
:102AA0000ED020220BE04220697811402829EDD079
:102AB000B4230343216808689843086032486A7069
:102AC0006063A06B226B002813D0212A01D0112A49
:102AD0000FD10A68520404D5012292030B68934374
:102AE0000B60FDF751FE01282CD16878602816D1C3
:102AF0001FE0E06B002819D0222A01D0122A15D13C
:102B00000A68120404D50122D2030B6893430B60B8
:102B1000FDF73AFE012829D16878602809D0002005
:102B2000287020632046FDF7B3FFB0BD68786028A9
:102B300015D1202068700020287020632046FDF702
:102B40005BFFB0BD00202870A06B10498163FDF7CA
:102B5000E1FD002809D0A06B816B8847B0BD002043
:102B6000287020632046FDF793FFB0BD0020287039
:102B7000E06B06498163FDF7CDFD0028F5D0E06BE1
:102B8000816B8847B0BDC0460D340008712900082C
:102B9000F0B581B004682023E361024640325578E5
:102BA0005678212D07D128252E40F425ED43282ED7
:102BB0000DD0AD1C0CE0222E0FD1557828262E40CA
:102BC000F425ED43282E00D1B035122601E0B235B0
:102BD000112627682F40276006636568C34E2E4084
:102BE000666000254563C24EC662CE0605D5102636
:102BF000E661466C0427374347645678490705D594
:102C0000602E03D1616AC9B200910099A169890758
:102C10000BD4A169C9070CD1A16901260E43A66195
:102C2000416C5478602C08D117E0A562A169C907EE
:102C3000F2D0416C5478602C0FD000290DD151781E
:102C400021290FD153700563157091789570402933
:102C500016D1FEF7DAF901B0F0BD416CFFF7FCFECA
:102C600001B0F0BD5178222910D153700563157061
:102C700091789570402907D1FEF7C6F901B0F0BDF3
:102C8000FEF748F801B0F0BDFEF743F801B0F0BD23
:102C90000000FFFF10B502464032002393705478C5
:102CA00020215170F421C943212C0AD1112404633D
:102CB00043631370527828231340282B12D0891CA9
:102CC00011E01224046343631370527828231340E5
:102CD000282B00D1B031026813680B401360FEF757
:102CE00018F810BDB231026813680B401360FEF78C
:102CF00011F810BDF0B583B0029104460268176860
:102D000006464036707820210191D161F7210140BB
:102D1000FC20C543212904D0222908D122212B4699
:102D200000E0AB1C707810681840106021630095BB
:102D30000123D9035068084350605068E54D0540B1
:102D40005560906980070FD49069C007029D11D02B
:102D50009B03780414D40F421BD010688843106082
:102D6000E76B002F12D114E0002090629069C00739
:102D7000029DEDD19069184390619B037804EAD5D8
:102D8000106898431060A76B002F02D03868406825
:102D9000608568070ED5606A526A0270606A401CDE
:102DA0006062228D0025002A04D0501E2085608D8F
:102DB000401E6085608D002803D0606C04220243B1
:102DC00062640027B7706763606C002831D0616C63
:102DD0002046FFF741FE7078282849D14448E06238
:102DE0002763019870706763B770680712D5606ACF
:102DF0002168496A0170606A401C6062208D002869
:102E000008D0618D491E6185401E2085606C0421BB
:102E1000014361647078707820680168FE229143F4
:102E2000016037701021C1612046FDF771FF03B0CA
:102E3000F0BDE06A2E4A90420BD170780199717012
:102E400037702763222810D12046FEF735FB03B0E8
:102E5000F0BD104622681568B7701D420AD10D42B8
:102E6000009B05460CD0434907E02046FEF725FBB2
:102E700003B0F0BD3E49009B054610680840106055
:102E8000707829280AD12820707021212163377099
:102E90007178014028290FD00A330EE070782A2873
:102EA00019D1282070702221216337707178014078
:102EB000282909D0083308E0BA3310681840106098
:102EC0002046FEF7FAFA06E0B833106818401060A2
:102ED0002046FEF7F1FAE5620198707037702763BB
:102EE0002046FDF715FF03B0F0BDC04600E800FE28
:102EF0000000FFFFB0B501680C68024640320023B5
:102F00009370650403D4240405D51A4C00E0184CD2
:102F10000D6825400D605478292C0CD1282454705C
:102F200021250563137053782340F422D243282BC4
:102F300016D0921C15E054782A2C10D128245470F5
:102F400022250563137053782340F422D243282BA3
:102F500000D1B0320B6813400B60FEF7ADFAB0BD84
:102F6000B2320B6813400B60FEF7A7FAB0BDC04643
:102F7000FFBFFFFFFF7FFFFFF0B585B00446403085
:102F800004902768B869C00606D4002006460123CD
:102F9000BA69D5055ED472E01020F861B869800680
:102FA00065D4481C4AD01646039101200190800345
:102FB000029004E0B869202202402A4342D1FDF782
:102FC000D3FC276800250399002902D0801B884282
:102FD000F0D97A6804988078BB691B040CD50299F3
:102FE0000A4009D1202807D0786802990843786000
:102FF000FDF7BAFC06462768B8698006DAD40025D2
:1030000003E02768B8698006D4D4FDF7ADFC801BC7
:103010001A28F6D3606C202108436064049A51702A
:103020000020107090700125EBE7B86980061ED46F
:10303000B86980061BD4B869800618D4B8698006C0
:10304000F3D514E0002D12D00420019E0123BA69AB
:10305000D50514D51D02FD61184301935D02560587
:1030600011D59B02FB6108302A4214D116E02020C2
:10307000F861012604200123BA69D505EAD4019636
:103080005D025605EDD42A4205D1019A002A05D1E8
:10309000002005B0F0BDFD6102221043BA6992071D
:1030A00001D50022BA62BA69D20703D1BA690123F5
:1030B0001343BB617A68074B13407B60616C01432B
:1030C00061642020049948700020087088700120F5
:1030D00005B0F0BD00E800FEF0B583B00C46054633
:1030E0004021405C012802D1022003B0F0BD164609
:1030F0002F464037012038702240D30615D453079D
:1031000026D4930734D423063FD531403DD0698D72
:10311000002902D0298D00294BD028684068800101
:1031200038D42846FFF7B6FD38E029681022CA6176
:103130006A6C042313436B648A69920701D50022E9
:103140008A628A69D20729D18A6902438A6125E0A5
:10315000686A2968496A0170686A401C6862288D3B
:10316000401E2885688D401E68850420844315E034
:103170002868696A0A788262481C6862288D401E45
:103180002885688D401E688508E0510606D5698D42
:10319000002921D040212846FFF75EFC2640B006DA
:1031A00003D528462146FFF7F3FC0020387003B012
:1031B000F0BD296802914B68924A1A406B8D1B0A38
:1031C00017D0FF20288502994868204B03409818A3
:1031D0001F4A80184860E1E729684A689201DDD4F7
:1031E000EA6A194B9A429CD180034A6802434A60BA
:1031F000D4E76B8D00932B85EB6A0193124B0199F9
:10320000994211D1029949680191104B01990B40E3
:103210000193009BDBB21B049A18019BD218400655
:10322000101802994860B9E7C007EB6A8343009819
:10323000C0B200048018184302994A68034B134037
:1032400003434B60AAE7C0460000FFFF009C00FC60
:103250000000FF01F0B583B01C46019205460068EE
:103260004268674B1340674A0A40E1B20904891873
:10327000C91801220292520389184160089E099FD1
:10328000284631463A4600F07BFA002802D00298E0
:1032900003B0F0BD01992868012C01D1C9B20BE03F
:1032A0000C46090A8162284631463A4600F068FA1F
:1032B0000028ECD12868E1B28162816900244906C6
:1032C0000FD4002E1AD0711C12D18169490608D47E
:1032D0008169490605D48169490602D48169490694
:1032E000F3D5204603B0F0BD286880694006F8D4C5
:1032F000FDF73AFBC01BB042F6D901E0FDF734FB05
:1033000028464030696C20221143696442700021D4
:1033100001708170029803B0F0BDC046F0B583B073
:103320001C460292054600684268354B1340354AF8
:103330000A40E1B209048918C918334A8918416062
:10334000089E099F284631463A4600F019FA0122A4
:10335000002802D0104603B0F0BD02992868012C65
:1033600006D1C9B2816281690024090643D416E0FE
:1033700001920C46090A8162284631463A4600F01D
:10338000FFF9002803D0019A104603B0F0BD286869
:10339000E1B28162019A8169002409062BD4002ED2
:1033A0000ED0711C1DD18169090624D481690906DA
:1033B00021D4816909061ED481690906F3D51AE072
:1033C0000192FDF7D1FA28464030696C2022114362
:1033D00069644270002101708170019A104603B047
:1033E000F0BD0192FDF7C0FAC01BB042EBD82868CF
:1033F00080690006F6D52246104603B0F0BDC046EF
:10340000009800FCFF03000000200001F0B583B02D
:10341000164604464020205CE26A012802D10220C0
:1034200003B0F0BD0D4620464030012702900770E2
:103430000E40B00609D52046294601943C46174661
:10344000FFF758FC3A462746019CF0061AD470074D
:103450002AD430077ED4B007029E21D5608D002883
:1034600000D1B8E02068616A0A788262481C606214
:10347000208D401E2085608D401E608500203070AC
:1034800003B0F0BD608D00282FD020681021C161ED
:10349000606C04210143616471480242029E61D064
:1034A0000020307003B0F0BD608D0028029E0CD06B
:1034B000606A2168496A0170606A401C6062208D00
:1034C000401E2085608D401E6085608D0028E7D1FC
:1034D00064488242E4D0206802680021B17053043D
:1034E00065D4120467D5614A62E0029E70785D4936
:1034F00028283FD1780682423CD1E1620020206337
:10350000202171706063B070690712D5616A22680A
:10351000526A0A70616A491C6162218D002908D0D3
:10352000628D521E6285491E2185616C04220A4308
:1035300062647178717821680A68FE239A430A6090
:1035400030701020C8612046FDF7E2FB002030708B
:1035500003B0F0BD2046FFF72BFA029E002030702A
:1035600003B0F0BD616C2046FFF776FA00203070A2
:1035700003B0F0BD1546727820681023C361292A74
:103580008ED18D428CD08169890701D5002181625D
:103590008169C90702D181693943816102680021CB
:1035A000B170530422D4120424D5304A1FE02E4AAD
:1035B0000368134003607278292A2BD12822727085
:1035C00021232363317073781340F421C943282BDE
:1035D0001ED1B23139E02248024200D060E72046D5
:1035E000FFF788FC0020307003B0F0BD1E4A03686E
:1035F000134003607278292A0CD12822727021238B
:103600002363317073781340F421C943282B1BD0F6
:10361000891C1AE072782A2A00D041E728227270A9
:1036200022232363317073781340F421C943282B7C
:1036300000D1B03102680A4002602046FDF73CFF2D
:103640000020307003B0F0BDB23102680A40026061
:103650002046FDF732FF0020307003B0F0BDC046B9
:10366000FFFFFFFE0000FFFFFFBFFFFFFF7FFFFF29
:10367000F0B583B01C4615460E46074603689969A7
:103680003140891B4A424A410020AA421FD1002CE6
:103690001FD0611C2CD199693140891B4A424A4193
:1036A000AA4214D199693140891B4A424A41AA422F
:1036B0000DD199693140891B4A424A41AA4206D13B
:1036C00099693140891B4A424A41AA42E3D003B07A
:1036D000F0BDFDF749F938464030796C202211439E
:1036E00079644270002101708170012003B0F0BD47
:1036F000019008980290FDF737F90299401AA0420C
:10370000E9D8386880693040801B41424141A94274
:10371000F1D0019803B0F0BD70B5154604460029FC
:1037200011D00E4620688069800619D420463146A3
:103730002A46FFF721FC002810D1FDF715F9401BA0
:10374000B042EFD910E020688069800608D40021DB
:1037500020462A46FFF710FC002803D0012070BD48
:10376000002070BDFDF700F920464030616C20223A
:10377000114361644270002101708170012070BDAD
:10378000F0B581B00446006880690025800711D437
:1037900016460F46002921D0781C17D10025E94391
:1037A00020463246FFF7E8FB00281ED120688069DA
:1037B0008007F3D5284601B0F0BDFDF7D5F8801B92
:1037C000B84218D8206880698007F3D4204639466B
:1037D0003246FFF7D1FB0028EFD006E0002120465B
:1037E0003246FFF7C9FB002803D00125284601B067
:1037F000F0BDFDF7B9F820464030616C202211433E
:10380000616442700021017081700125284601B079
:10381000F0BD0000F0B587B0002406941B48016895
:103820002022114301600168114001910199016852
:10383000012529430160016829400191019901682E
:103840000222114301600068104001900198104E5F
:10385000304629462A46FDF77FF82F033046394681
:103860002246FDF779F8059504940395029502AE7A
:1038700007483146FCF79EFF059404940395029790
:1038800003483146FCF796FF07B0F0BD3410024004
:103890000004005010B5124800210122114B124CB7
:1038A000046043608160C260016141618161C16106
:1038B0000162FDF7F1F8002801D0FCF726FF084867
:1038C0000021FDF757F8002801D0FCF71EFF04483F
:1038D0000021FDF770F8002801D0FCF716FF10BD9D
:1038E000E80000200B0200000054004010B50F4813
:1038F00000210F4A08230724016241628162C462E9
:103900000163436323024124A40014C0FC3401601A
:1039100043608160C160046141610838FEF7AEFA1E
:10392000002801D0FCF7F1FE10BDC0463401002094
:1039300000300140B0B588B0D74880210024154A36
:103940002E4B154D056043608460C2600461446184
:103950008161079406940594FEF79AFC002801D033
:10396000FCF7D3FE012000030490CB4804A9FEF726
:103970005DFD002801D0FCF7C8FE03940294019479
:10398000C54801A9FEF758FC002801D0FCF7BDFE90
:1039900008B0B0BD0F270000002C014010B588B062
:1039A000C1488021816100241449154A02604160A8
:1039B000C8318460C1600461079406940594029440
:1039C000FEF766FC002801D0FCF79FFE01200003F3
:1039D0000490B54804A9FEF729FD002801D0FCF7A2
:1039E00094FE03940194B04801A9FEF725FC002839
:1039F00001D0FCF78AFE08B010BDC0461F030000CE
:103A00000004004010B50C4800210C220B4B016251
:103A100041628162E124640218C0016041608160FA
:103A2000C260016141610838FEF77EFE002801D0C6
:103A3000FCF76BFE10BDC046300200200044004081
:103A4000FEE77047F0B587B0049314460E4605466E
:103A500005A800270770FCF787FF0499081A02944D
:103A60000419FCF781FF0490814800682321414339
:103A7000080D6043069003952D68A868304233D046
:103A8000019703214F020298401C30D0BE420091A2
:103A90001CD104E0039800688068384245D0287B38
:103AA00005A908700598FCF75FFF0499401AA04229
:103AB0003ED206980699491E06910028EAD104468E
:103AC000E8E703980068806830422ED0FCF74CFF8E
:103AD0000499401AA0422BD206980699491E0691D5
:103AE0000028EED10446ECE7384607B0F0BDBE42F0
:103AF00047D1287B05A908700598A868384214D0DA
:103B0000287B05A908700598A86838420DD0287B45
:103B100005A908700598A868384206D0287B05A931
:103B200008700598A8683842E3D1019807B0F0BD45
:103B3000039C20684168E022914341604121890053
:103B400062688A420BD1A1680122D303994202D054
:103B50009202914203D10168402291430160012108
:103B60004A03A36A5C34934205D10368934303601C
:103B7000036813430360002020706170009807B051
:103B8000F0BD0199A868304208D0A868304205D03D
:103B9000A868304202D0A8683042F3D1084607B086
:103BA000F0BDC046F0B583B015460F460446FCF79D
:103BB000DBFE281AC519FCF7D7FE06462C4800681C
:103BC0004001000D684302902268916800200906B8
:103BD00022D5791C1DD0019027465C3703E0206870
:103BE0008068000641D5FCF7BFFE801BA84215D2B5
:103BF00002980299491E02910028F0D10546EEE78D
:103C00009168090608D59168090605D591680906E5
:103C100002D591680906F3D403B0F0BD206841686D
:103C2000E022914341604121890062688A420BD1C0
:103C3000A1680122D303994202D09202914203D19A
:103C4000016840229143016001214A03A36A934223
:103C500005D10368934303600368134303600020A6
:103C600038707970032003B0F0BD019803B0F0BD47
:103C700044000020704780B5FDF720FC80BD7047F0
:103C800080B50548FEF782FC80BDC04680B502487D
:103C9000FEF77CFC80BDC0469801002080B502483C
:103CA000FEF774FC80BDC046E4010020B0B5816A17
:103CB000CA070CD18A0714D44A071CD40A0724D493
:103CC000CA062CD48A0634D44A063CD44CE00122DD
:103CD000520403685C689443C26A22435A608A07AC
:103CE000EAD50122120403685C689443026B224304
:103CF0005A604A07E2D50122920403685C68944343
:103D0000426B22435A600A07DAD50122D2030368C4
:103D10005C689443826B22435A60CA06D2D5012262
:103D2000120303689C689443C26B22439A608A061C
:103D3000CAD50122520303689C689443026C224353
:103D40009A604A0610D501221305026854689C4304
:103D5000456C2C4354609D4206D103235B05546897
:103D60009C43836C23435360090607D50121C90492
:103D7000026853688B43C06C18435060B0BD0000AC
:103D8000F0B581B00446006801684B4A0A40A1685A
:103D900023690B43616919431143E26911430160CF
:103DA0000321090343688B43E16819434160A1691A
:103DB000236A0B438168414D0D401D438560C36AF2
:103DC0000F218B43616A0B43C3623D4B984209D07C
:103DD0003C4B984208D13C4800688007000F3BA349
:103DE0001F5802E0002700E010272646683601250C
:103DF000EB033A489A4210D1082F55D87F443F79B7
:103E00007F00BF44045123511C5151512200FDF742
:103E1000D1FD002817D0616A18E0082F44D8C046A9
:103E20007F443F797F00BF44043F2D3F263F3F3F03
:103E30002C00FDF7BFFD002821D0616A22E0FDF7CC
:103E4000CBFD0028E7D100252EE018464900244A82
:103E5000515A00F087FB400061684A08101800F0D2
:103E600081FB0246103A1F498A421DD201400007D9
:103E7000400F084315E0FDF7AFFD0028DDD1002518
:103E800012E018464900164A515A00F06BFB61686F
:103E90004A08101800F066FB01461039114A914299
:103EA00002D22168C86000250F48306000202067DA
:103EB0006067284601B0F0BDF369FFCFFFF4FF1142
:103EC000004400400038014054100240000000004F
:103ED0000400000002000000080000000024F400BC
:103EE00040490008F0FF000001000100F0B587B074
:103EF00015460E4604460768F9693140891B4A4257
:103F00004A410020AA4224D10693049422468032DA
:103F10000C9C002C1FD0611C44D1F9693140891BD5
:103F20004A424A41AA4214D1F9693140891B4A42A6
:103F30004A41AA420DD1F9693140891B4A424A419E
:103F4000AA4206D1F9693140891B4A424A41AA4234
:103F5000E3D007B0F0BD0392FCF706FD049FEFF33A
:103F60001081012080F310880D2252013B681C68EB
:103F700094431C6081F31088EFF3108180F3108864
:103F80003A6893688343936081F310882020039AF2
:103F9000506010460830002111702021016003207C
:103FA00007B0F0BD0392029001200190C00205907D
:103FB000049F06E0C0693040801B41424141A94254
:103FC0002DD1FCF7D1FC0699401AA042C7D8386819
:103FD00001684907EED5C169059A1142EAD00599F1
:103FE0000162EFF31080019C84F310880D214901D8
:103FF0003A6813688B43136080F31088EFF31080E6
:1040000084F3108839688A68A2438A6080F3108834
:104010002020039A5060906010460C30BBE7029855
:1040200007B0F0BDF0B58FB04520FCF7B1FB7D20A7
:10403000C40002940125019505A80090574EB621B1
:10404000202230462B46FCF7E1FF3046FCF721FDED
:104050002028FAD105A80078812800D08FE004AA92
:10406000F42010706420039000904C4EB627304628
:1040700039462B46FCF78CFE1420FCF789FB52488E
:10408000007800F015FA0A20FCF782FB02940195F3
:1040900005A80090E022304639462B46FCF7B6FFD3
:1040A0003046FCF7F6FC2028FAD1484F05983870C6
:1040B0000294019505A80090384EB62100223046A2
:1040C0002B46FCF7A3FF3046FCF7E3FC2028FAD18F
:1040D00005A800783870C0074FD10294019505A853
:1040E00000902E4EB621E02230462B46FCF78EFF84
:1040F0003046FCF7CEFC2028FAD10598387002949F
:10410000019505A80090254EB62100243046224690
:104110002B46FCF77BFF3046FCF7BBFC2028FAD18E
:1041200005A800783870C00728D105A8C470039A84
:10413000827044703C210170042100AB07C3174C0E
:10414000B621052201232046FDF774F82046FCF72E
:10415000A0FC2028FAD1114C4B208300B6210A2262
:104160002046FCF7EDFC0328F6D00C4C2046FCF76B
:1041700090FC2028FAD10FB0F0BDFEE7FEE708A0C2
:1041800005A90A4668C868C268C868C2E8C8E8C223
:10419000AE4827222346FEF759FBFEE7E800002041
:1041A000434353383131206E6F7420666F756E64EF
:1041B0002E20506C6561736520636865636B2077A2
:1041C0006972696E672E000040000020E400002044
:1041D00094B0FDF77DF900260D960C960B960A9685
:1041E00009964B2080000290D430FDF7E7F90724B0
:1041F0006007139008201190109603200F9002255D
:104200000E9501270797780412903804089007A8A4
:10421000FDF726FC002803D0EFF3108072B6FEE70E
:10422000069603A870C003A83146FDF7C5FA00281A
:1042300003D0EFF3108072B6FEE7FFF7EBFAFFF75B
:1042400029FBFFF753FBFFF7DDFBFFF773FBFFF7DE
:10425000A5FB7948FEF7BEF87848FEF7BBF878482A
:10426000002201923946FCF777FB764C211D764EF1
:1042700030463A46029D2B46FDF7BCFE611D304696
:104280003A462B46FDF7B6FEA11D30463A462B4670
:10429000FDF7B0FE6A4839463A46FCF75DFB7D20E3
:1042A000C0000090FCF774FA65483946019AFCF7A3
:1042B00053FBE11D30463A462B46FDF79BFE214657
:1042C000083130463A462B46FDF794FE2146093127
:1042D00030463A462B46FDF78DFE594E304639465C
:1042E0003A46FCF739FB0098FCF752FA304639465B
:1042F000019AFCF731FB21460A31534E30463A46CB
:104300002B46FDF777FE21460B3130463A462B46C9
:10431000FDF770FE21460C3130463A462B46FDF73C
:1043200069FE474839463A46FCF716FB21461C31E0
:1043300046481A22464BFEF789FA474D2E4612365A
:104340000DE0304645A13A46FBF730FF19223F48C1
:1043500031463F4BFEF77AFA7F1C802F0DD0780450
:10436000010C032205233B48FCF7EAFB0028E8D0B8
:1043700021460D3104223548EBE7214611313348FF
:104380000B22334BFEF762FAFFF74CFE00F072F897
:1043900028460C30029006E020780121414021702F
:1043A0006420FCF7F5F9207800280AD0621C7021FF
:1043B00003232848FCF7E2FD0C20285600280AD5E4
:1043C000EAE7702106232348029AFCF7A5FC0C209B
:1043D00028560028E0D4EF7B3809697B09030818C8
:1043E000A97B090140182860FBF7C1FF002632466F
:1043F0001C4BFBF7BFFF32461B4C2346FBF7BAFFB3
:10440000FBF74EFFA860287C00023907090B08184B
:10441000697C4018FBF7ABFF3246144BFBF7AAFF51
:1044200032462346074CFBF7A5FFFBF739FF10493F
:1044300000F094F96860AFE798010020E4010020E3
:104440000004005000000020340100203002002051
:1044500010270000E8000020B40000203078255824
:1044600000000000000059400000B03E000069401C
:10447000000048C210B584B064200290042001906E
:1044800003AC00943548B62102220123FCF7BEFD9F
:1044900060782178090208180449E278A3781B02A1
:1044A0009A184A60886004B010BDC046A800002079
:1044B000F0B587B005467D20C7000297012401941E
:1044C00004A80090254EB621304622462346FCF72C
:1044D0009DFD3046FCF7DDFA2028FAD170210498C2
:1044E0008843042D00D30425290108431C49087082
:1044F00005A908704B20850000A832C0174EB621D0
:10450000304622462346FCF795FE3046FCF7C1FABA
:104510002028FAD1114EB6210A2230462B46FCF74C
:104520000FFB0328F7D00D4D2846FCF7B2FA2028E0
:10453000FAD10297019406A80090084DB6212846AA
:1045400022462346FCF762FD2846FCF7A2FA202803
:10455000FAD106980249087007B0F0BDE8000020C3
:10456000C002002043088B421AD3002203098B4269
:1045700079D3030A8B425ED3030B8B4242D3030CE5
:104580008B4227D30902FF2212BA030C8B4202D3BB
:104590001212090203D0030B8B4233D31AE0D3E08B
:1045A000411A8041401C704703460B4371D44308B5
:1045B0008B42F5D3002203098B4254D3030A8B426A
:1045C00039D3030B8B421DD3030C8B4202D3944689
:1045D0006EE0090AC30B8B4201D3CB03C01A5241D0
:1045E000830B8B4201D38B03C01A5241430B8B4286
:1045F00001D34B03C01A5241030B8B4201D30B036F
:10460000C01A5241C30A8B4201D3CB02C01A524195
:10461000830A8B4201D38B02C01A5241430A8B4258
:1046200001D34B02C01A5241030A8B4201D30B0241
:10463000C01A5241CDD2C3098B4201D3CB01C01A5B
:10464000524183098B4201D38B01C01A5241430965
:104650008B4201D34B01C01A524103098B4201D353
:104660000B01C01A5241C3088B4201D3CB00C01AC0
:10467000524183088B4201D38B00C01A5241430838
:104680008B4201D34B00C01A5241411A52411000D3
:104690007047CA0F00D04942031000D34042534034
:1046A00000229C4603098B422DD3030A8B4212D36E
:1046B0008901FC2212BA030A8B420CD389019211A0
:1046C0008B4208D3890192118B4204D3890137D0E0
:1046D000921100E08909C3098B4201D3CB01C01AB2
:1046E000524183098B4201D38B01C01A52414309C5
:1046F0008B4201D34B01C01A524103098B4201D3B3
:104700000B01C01A5241C3088B4201D3CB00C01A1F
:10471000524183088B4201D38B00C01A5241D9D237
:1047200043088B4201D34B00C01A5241411A00D2B8
:1047300001465241104663465B1000D34042704729
:1047400063465B1000D3404201B50021004201D016
:10475000C9430846C046C04602BD000070B50125E9
:10476000ED0704004C4020D4441A01D2001B091963
:10477000C60D4B00F2B2FF2A29D01B0E2CD000022E
:104780000C0228432C43D31ADC40051910D2280A06
:1047900002D3401C6D0611D0761EF6058019FF2A43
:1047A00000DA70BDC00DC00570BD694000F022F890
:1047B00001200543C541521C761CE8E764089C4073
:1047C000C90161408900E7D10124A043E4E71B0E41
:1047D000440200D0034870BD002AFCD1C00FC007BE
:1047E00070BD00BF0000C07F70B50125ED0704005B
:1047F0004C4022D4441A02D26C40001B0919C60D49
:104800004B00F2B2FF2A4BD01B0E50D000020C021C
:10481000A8432C43D31ADC40051B05D5AD0019D3A2
:104820006D08761E521E37D0F605280A01D280196F
:1048300070BD70416D0603D070BD6940FFF794FFF5
:104840009C4009026140490001D0401E70BD012416
:10485000A04370BD6D081DD001202B0C01D12D048B
:1048600010302B0E01D12D0208302B0F01D12D015C
:10487000001DAB0F01D1AD00801CEB0F01D16D000D
:10488000401C361A121A6D00680AF5054019012AF3
:1048900002DB70BD002070BDC036300AC00770BD9D
:1048A0001B0E440201D1FF2B00D1024870BD002A2B
:1048B000F0D070BD0000C07F303132333435363730
:1048C0003839414243444546403058003031323354
:1048D0003435363738396162636465664030780054
:1048E00000000000000000000000000000000000C8
:1048F00000000000000000000000000000000000B8
:10490000010000000200000003000000040000009D
:104910000600000007000000080000000900000079
:104920000000000000000000000000000000000087
:10493000010000000200000003000000040000006D
:10494000010002000400060008000A000C0010002C
:10495000200040008000000178490008000000208D
:104960004800000004010008C04900084800002079
:10497000800800002001000801AC33002800010776
:10498000FFFF0F0000202D2000446F6E6521200DD9
:104990000A0D0A005374617274696E6720493243CC
:1049A000205363616E6E696E673A200D0A00000045
:1049B0000100000004000000010000000024F400D9
:04000005080000C12E
:00000001FF
